:020000040800F2
:10000000A00800202901000825010008250100089A
:100010002501000825010008250100080000000056
:1000200000000000000000000000000025010008A2
:100030002501000800000000250100082501000836
:1000400025010008250100082501000825010008F8
:1000500025010008250100082501000825010008E8
:1000600025010008250100082501000825010008D8
:1000700025010008250100082501000825010008C8
:1000800025010008250100082501000800000000E6
:100090000000000000000000000000002501000832
:1000A0002501000825010008250100082501000898
:1000B000510A000861020008250100082501000816
:1000C0002501000825010008250100082501000878
:1000D000250100089509000825010008ED09000820
:1000E0002501000825010008250100080000000086
:1000F0000000000000000000000000000000000000
:1001000000000000000000000000000000000000EF
:100110000000000000000000250100082501000883
:100120005FF808F1FEE700BF08B50C480C4B984299
:1001300007D2C2431A4422F003020432094904F0F0
:1001400047FE094809494FF000028842B8BF40F80D
:10015000042BFADBBDE8084000F050BD0000002091
:10016000DC000020F0590008DC0000209C04002086
:1001700030B5012185B0022001F04AFE00210220A5
:1001800001F05EFE002505230E4C01A92046CDE9B5
:1001900001358DF80C5001F0D7FE2046012101F009
:1001A0004FFF01222046114601F030FF064B04A804
:1001B00040F8103D01F0EEF92946204601F01AFF03
:1001C00005B030BD000400401D00010110B504461B
:1001D00000210D4801F00EFF21460B4801F022FFDF
:1001E0000021094801F01CFF0121074801F002FF2E
:1001F0000023064A13701378002BFCD0BDE8104092
:100200000021014801F0F6BE00040040EC0200208D
:1002100008B3F8B50027104C104D461E00212846A3
:1002200001F0E8FE4FF47A71284601F0FBFE002150
:10023000284601F0F5FE0121284601F0DBFE27707B
:100240002378002BFCD0013E0021284601F0D2FE8D
:10025000731CE3D1F8BD7047EC020020000400409D
:1002600008B50121064801F0DFFE00B908BD0121F3
:10027000034801F0E5FE0122024B1A7008BD00BFE1
:1002800000040040EC02002030B41349134D0C78F8
:100290002B78621CD2B20A705BB9012A15D0651E98
:1002A000062D0BD9A4F10802012A11D90B700220E6
:1002B00002E00120013B2B7030BC70470078023A0D
:1002C000104100F0010030BC7047184630BC704748
:1002D00002340C700120EFE7DC000020ED0200206A
:1002E0002DE9F0412025204C82B0002280460E46A8
:1002F0001E4840F22551C4F8845001F00BFF40F233
:1003000025511A4801F052FF4FF45871174801F077
:100310004DFF0021154801F0F1FE01214FF480400E
:1003200001F06AFD4FF440270022114B0F48194697
:100330005A609F609A81C3F8008001F085FE0D4BE2
:1003400002A840F8043D01F025F90121074801F019
:10035000D5FE36B1012240F22551044801F0DAFE03
:10036000656002B0BDE8F08100E100E000380140C6
:100370001C030020250F020100214FF0006001F056
:1003800035B900BF10B501F049FC4FF4803001F0E1
:1003900069FC01F083FC012800D010BD0446102048
:1003A00001F0A6FA022001F099FA902001F0A0FCD9
:1003B0004FF4A06001F0B0FC4FF4806001F0A2FCAB
:1003C000204601F083FC01F08BFC0428FBD110BD1A
:1003D0002DE9F04F012185B00420012401F00CFD2E
:1003E00010254FF48052DFF84493C3484946A9F8DA
:1003F000002089F8035089F8024001F085FA21466F
:10040000082001F0F9FC4FF4C0724946BB48182699
:1004100089F80350A9F8002089F8024001F074FA25
:100420004FF420424FF480484FF0040B4946B34844
:10043000A9F8002089F8036089F8024001F064FA05
:100440004946AE48A9F8008089F803B001F05CFA8B
:100450002846214601F0D0FC4FF400534946A848F5
:10046000A9F8003089F8035089F8024001F04CFAED
:100470004FF400424946A148A9F8002089F80360DA
:1004800089F8024001F040FA4046214601F0C0FCE4
:100490004FF082774FF4006300250722DFF890A227
:1004A0009848CAF804305146CAF80C60CAF800707F
:1004B000AAF810200193AAF8085001F003FD214684
:1004C000904801F02FFD21468E4801F01BFD4FF4AE
:1004D000827251468B48AAF8022001F0F3FC4FF4D7
:1004E00000734FF4806749468348A9F8003089F8C3
:1004F000036089F8024001F007FA49467E48A9F8EE
:10050000007089F803B001F0FFF92023DFF824A27E
:100510002A46CAF8843040F225517B4801F0FAFDA2
:1005200040F22551784801F041FE4FF45871764869
:1005300001F03CFE2946744801F0E0FD40462146AA
:1005400001F05AFC4FF4165C4FF440234FF0800842
:100550006E4A6D48C2E900C51146936095810092CC
:1005600001F072FD6A4904A840F8041D01F012F878
:100570002146654801F0C2FDA9F800704FF44027FC
:1005800049465E4889F8036089F8024001F0BCF9E9
:10059000019B49465948A9F8003089F803B001F099
:1005A000B3F9CAF8848029465A4801F0A7FD2146CC
:1005B0004FF4802001F02CFC4FF49643009A022661
:1005C00097604FF4806711465560524813609581DB
:1005D00001F03AFD21464F4801F090FD224640F2DD
:1005E00025514C4801F096FD2146CAF8048020466A
:1005F00001F0F6FB484801F0ADF8DFF83CA1474AAE
:1006000021464748CAF80420CAF80850CAF82850BA
:10061000CAF80C6001F02EF8CAF81C7020274FF4BD
:100620008072CAF820704FF400573E4B51463A484A
:10063000CAF80030CAF81820CAF81480CAF8105056
:10064000CAF8247001F01EF92146334801F03AF946
:10065000402249462848A9F8002089F8035001F0B3
:1006600053F94FF0200349462348A9F8003089F890
:10067000035001F049F9284601F058FB21464FF498
:10068000007001F0B9FB4FF46022274B2448194653
:100690009A601D601C715C71DD601E7400F0BCFF0F
:1006A0002246032305211E4801F00CF8324603239D
:1006B00006211B4801F006F82146194800F0DAFF30
:1006C0001748214600F0CCFF154800F0DDFF144824
:1006D00000F0E0FF0028FAD1114800F0DFFF1048D9
:1006E00000F0E2FF0028FAD101210D4800F0E0FF00
:1006F00005B0BDE8F08F00BF00080140000C0140CC
:100700000010014000380040003801401C03002068
:10071000250F020100480040080002406801002047
:10072000002401404C240140F0020020040300207A
:100730000803002000E100E02C030020F8B54FF48E
:10074000004201261827174B174819461A80DF70F8
:100750009E7001F0D9F831464FF4804001F058FB0B
:100760004FF082704FF40061072300220F4C104DB0
:10077000206061602846214623822281E76001F0E3
:10078000A1FB3146284601F0CDFB3146284601F059
:10079000B9FB4FF48273284621466380BDE8F840D8
:1007A00001F090BB04030020000C0140080300206E
:1007B0000038004038B5084801F04EFB4FF40045C2
:1007C00010240122054B064819461D80DC709A70E2
:1007D000BDE8384001F098B800380040040300201C
:1007E000000C0140012130B5054685B0084601F0F6
:1007F0000FFB0021012001F023FB154B002293FB8E
:10080000F5F30524013B01A94FF08040ADF8083015
:10081000ADF80A208DF80C20019401F095FB012120
:100820004FF0804001F00CFC01224FF08040114657
:1008300001F0ECFB074B04A840F8103D00F0AAFEC5
:1008400001214FF0804001F0D5FB05B030BD00BF65
:1008500040420F001C000101002A00F08F8000EBD5
:10086000D070F8B5401014460E4603F0E5F8444940
:1008700003F0EAF9434903F02BF84349074603F034
:10088000E3F903F0F3FAC5B2284603F0D5F83E4980
:1008900003F026F90146384603F018F84135257073
:1008A000074603F0E3FAC5B2284603F0C5F801464F
:1008B000384603F00BF830353449A570074603F08D
:1008C000C3F903F0D3FAC0B200F14103237103F07E
:1008D000B3F82E4903F004F90146384602F0F6FF5A
:1008E0002B4903F0B1F903F0C1FA3030A071304662
:1008F00003F0A2F8224903F0A7F9224902F0E8FF29
:100900002149064603F0A0F903F0B0FAC5B2284623
:1009100003F092F81C4903F0E3F80146304602F078
:10092000D5FF41356570064603F0A0FAC5B22846EA
:1009300003F082F80146304602F0C8FF3035134913
:10094000E570064603F080F903F090FAC0B200F1BA
:100950004103637103F070F80C4903F0C1F80146DC
:10096000304602F0B3FF0A4903F06EF903F07EFA55
:1009700000233030E07123720120F8BD104670472B
:100980008096184B0000B44200002041ABAA2A3DDB
:100990008988883B08B540F22551124801F0E4FBF4
:1009A000B8B94FF458710F4801F0DEFB40B90D485B
:1009B00001F0D0FBBDE8084046210B4801F0C6BB62
:1009C000084801F0C7FBBDE808404521064801F092
:1009D000BDBB044801F0BEFBBDE80840C0B201F059
:1009E00079BF00BF003801400048004038B540F2F0
:1009F0002551124801F0B8FB00B938BD0F4801F08D
:100A0000A9FB0F4CC0B223680E4D5A1C0A28E854AB
:100A10002260F2D1002AF0D0284604F015FA2946C7
:100A2000421E094804F018FA002321212B7023608C
:100A30000248BDE8384001F089BB00BF00480040D3
:100A4000E00000205803002000000020000000000B
:100A500070B501214FF0804001F0E6FA00B970BD99
:100A600001214FF0804001F0EBFA02F02DFA00284E
:100A70004CD15B4E5B4D73882A6A5B4C9A4232DBE9
:100A8000A379002B77D10023A380A3889BB253B90D
:100A9000708802F073FC50A3D3E9002302F0D8FC65
:100AA00002F0E8FE2862E379002B33D1E3794BB9F9
:100AB0004E4A1368013B136023B901236372136824
:100AC000013B1360AB6A013BAB62002BC7D1A37A39
:100AD000002B3CD095F82430002B47D10023A37283
:100AE000C823AB6270BDA38801339BB2A380A388E7
:100AF000192BCAD901234FF480713D48A37101F02D
:100B000089F880213A4801F085F8BEE7BDE87040D9
:100B100002F0D4B9374E3068FFF7B6FBA3792072E4
:100B2000002BC3D102282CD001283ED00028BDD1F3
:100B300001460122732000F073FB95F82430002B4E
:100B4000B4D04FF480712A4801F066F8AEE7E37A3A
:100B50001B0602D40123A372C2E795F82430002BB0
:100B6000F8D08021224801F055F8F3E78021204891
:100B700001F052F8B2E74FF480511F4801F04AF8F3
:100B800081E795F8243003BB33685A1C32605B78E8
:100B900003F0FF02002B89D14FF4C071134BE271B7
:100BA0001960627200F016FC80E702460221732091
:100BB00000F036FB95F82430002B3FF477AF4FF46C
:100BC00080710B4801F026F870E74FF480710848F7
:100BD00001F020F8D8E700BF9A9999999999F13FC7
:100BE0006801002000000020E000002078040020C0
:100BF000000C014074040020000801402DE9F04F72
:100C000089B0FFF7BFFBFFF7B7FBFFF7E1FB4B2016
:100C1000FFF7E8FDFFF7ACFA01F0CCFBB84B93F817
:100C2000243023B14FF48071B64800F0F3FF00F098
:100C3000F7FBB54800F022FB012200216D2000F0F7
:100C4000EFFA01220021712000F0EAFA0122F021DE
:100C5000132000F0E5FA01220021122000F0E0FA52
:100C6000012280210F2000F0DBFA002201230A2656
:100C70000527A64CDFF8B082E271A54AA54DDFF842
:100C8000D0A2DFF8D092DFF8D0B2C2F80080637251
:100C900002F0FAF80796E379002B40F09C80637A23
:100CA000002B00F09880002F00F09B80013FFFB2E6
:100CB000079B5E1E16F0FF03079300F0D3802823E6
:100CC000954A137000F01EFC4FF41673934A8AF88D
:100CD000000012888F4803FB02F31B13A9F80030B1
:100CE00001F056FBD5E900102B7D8D4A022BE37AEB
:100CF0008CBF43F0800303F07F03E372FFF7ACFD8A
:100D00007F4A8849884804F077F888494FF6FF738E
:100D100041F22102079E3DE083EA0C230FFA83FC97
:100D20001FFA8CF3BCF1000FACBF5B0082EA4303F7
:100D30009BB213F4004F0CBF5B0082EA43039BB2EB
:100D400013F4004F0CBF5B0082EA43039BB213F421
:100D5000004F0CBF5B0082EA43039BB213F4004FC9
:100D60000CBF5B0082EA43039BB213F4004F0CBF3D
:100D70005B0082EA43039BB213F4004F0CBF5B009D
:100D800082EA43039BB213F4004F0CBF5B0082EA7C
:100D900043039BB211F801CFBCF1000FBCD1079601
:100DA000574E1A4662494044B38504F025F8584B23
:100DB000C3F8008000F05AFB0122DBF800306D21FF
:100DC00013445C48CBF80030E27101F0BFF9E379DD
:100DD000002B3FF464AF0021102000F011FC30BF65
:100DE00059E700F043FB00F08DFB4FF416734B4ABC
:100DF0008AF800001288474803FB02F31B13A9F886
:100E0000003001F0C5FAD5E900102B7D444A022BD1
:100E1000E37A8CBF43F0800303F07F03E372FFF7B4
:100E20001BFD0021444801F069F9B9F800C0434BAB
:100E30009AF9007093E80700CDE9037C8DE807007C
:100E400095E80F0002F046F801213B4801F056F901
:100E500000F0C0FAE379002B4AD1637A002B47D027
:100E6000042725E7637200F04DFB4FF416732B4AFD
:100E70008AF800001288274803FB02F31B13A9F825
:100E8000003001F085FAD5E900102B7D244A022BB1
:100E9000E37A8CBF43F0800303F07F03E372FFF734
:100EA000DBFC274B1E4A03CB1B88C8F80000C8F8A0
:100EB000041024482449A8F8083003F09DFF0122BB
:100EC000224B093019889B7828F800104044837021
:100ED0001146732000F0A4F9134800F03FF84FF4D6
:100EE000FA60FFF795F901230A2263720792E6E69A
:100EF00000211020052700F083FB30BFCBE600BFA8
:100F000000000020000C01400040D943E000002018
:100F10007404002090030020ED02002068010020EE
:100F2000800300206C560008AC030020AF030020B3
:100F3000745600080048004000380140A00300201B
:100F400054560008B5030020605600086856000893
:100F50007C0300208E03002078030020F8B503787E
:100F6000002B4AD00646A64FA3F16102D1B219293F
:100F700025D9A3F14102D1B2192946D9A3F13002F2
:100F8000D1B209295DD92B3B152B00F21881DFE87E
:100F900013F0FF00E8001601D100BA001601160197
:100FA0001601160116011601160116011601160189
:100FB000160116011601A30016018C00750057F8E2
:100FC00022502C7844B911E000F076FA3C20FFF76B
:100FD0001FF915F8014F4CB100F048FA2E2C10D033
:100FE0002D2CF1D1B420FFF713F9EDE7B420FFF772
:100FF0000FF916F8013F002BB6D1BDE8F84000F01C
:10100000E9B93C20FFF704F9DEE757F822502C78C5
:101010004CB9EBE700F050FA3C20FFF7F9F815F86F
:10102000014F002CE2D000F021FA2E2C05D02D2CFF
:10103000F0D1B420FFF7ECF8ECE73C20FFF7E8F83C
:10104000E8E707EB8202956E2C784CB9CEE700F00A
:1010500033FA3C20FFF7DCF815F8014F002CC5D01F
:1010600000F004FA2E2C05D02D2CF0D1B420FFF77F
:10107000CFF8ECE73C20FFF7CBF8E8E72E24614DF2
:1010800008E000F019FA3C20FFF7C2F815F8014F0C
:10109000002CABD000F0EAF92E2C00F0AD802D2C06
:1010A000EFD1B420FFF7B4F8EBE72E24564D08E05B
:1010B00000F002FA3C20FFF7ABF815F8014F002CC6
:1010C00094D000F0D3F92E2C00F092802D2CEFD18B
:1010D000B420FFF79DF8EBE72D244C4D09E000F01C
:1010E000EBF93C20FFF794F815F8014F002C3FF482
:1010F0007DAF00F0BBF92E2C76D02D2CEFD1B42093
:10110000FFF786F8EBE72D24414D09E000F0D4F914
:101110003C20FFF77DF815F8014F002C3FF466AF37
:1011200000F0A4F92E2C5BD02D2CEFD1B420FFF7CA
:101130006FF8EBE72E24374D09E000F0BDF93C20B5
:10114000FFF766F815F8014F002C3FF44FAF00F0A1
:101150008DF92E2C40D02D2CEFD1B420FFF758F86C
:10116000EBE72D242C4D09E000F0A6F93C20FFF719
:101170004FF815F8014F002C3FF438AF00F076F926
:101180002E2C25D02D2CEFD1B420FFF741F8EBE722
:101190002E24224D09E000F08FF93C20FFF738F8AB
:1011A00015F8014F002C3FF421AF00F05FF92E2C11
:1011B0000AD02D2CEFD1B420FFF72AF8EBE74FF43B
:1011C000D270FFF725F814E73C20FFF721F8E2E79B
:1011D0003C20FFF71DF8C7E73C20FFF719F8ACE704
:1011E0003C20FFF715F891E73C20FFF711F876E770
:1011F0003C20FFF70DF85BE73C20FFF709F840E7DC
:101200007C5600083C5700082C570008145700086B
:101210000C5700081C5700082457000834570008D2
:1012200010B512BB040224B20C4312484FF4005113
:10123000A4B200F0F1FC02210F4800F07FFE00286C
:10124000F9D021460C4800F069FE01210A4800F05F
:1012500075FE0028F9D04FF40051064800F0DAFC82
:10126000054800F05DFEC0B210BD40F080000402F1
:1012700024B2D9E7001001400038004070B54D4954
:10128000064602F02DFC4C49044602F0DBFD4B49BA
:10129000051C204618BF012502F0D6FC02F0E6FD31
:1012A000AB00C4B2EB1A183C04EBC304681C94FBFB
:1012B000F0F402F0C1FB424902F012FC0146304654
:1012C00002F0C2FC0646E0B202F0B6FB0146304630
:1012D00002F0FCFA3B4902F0F9FA3B4902F000FC4B
:1012E00002F0C4FD04F01F0444EA451444F47544BC
:1012F00085B24FF40051354844F0400400F08CFCB6
:101300000221334800F01AFE0028F9D02146304867
:1013100000F004FE01212E4800F010FE0028F9D054
:101320004FF40051294800F075FC294800F0F8FD01
:101330002C0A4FF40051254844F4764400F06CFC2C
:101340000221234800F0FAFD0028F9D02146204868
:1013500000F0E4FD01211E4800F0F0FD0028F9D066
:101360004FF40051194800F055FC194800F0D8FD21
:10137000EDB24FF40051154845F4774500F04CFCB0
:101380000221134800F0DAFD0028F9D02946104860
:1013900000F0C4FD01210E4800F0D0FD0028F9D076
:1013A0000A484FF4005100F035FCBDE87040084891
:1013B00000F0B6BD3BB1933F0000F0430000204178
:1013C000ABAA0A410000C04100007A47001001406A
:1013D0000038004008B54FF400510F4800F01CFCE5
:1013E00002210E4800F0AAFD0028F9D048F2407111
:1013F0000A4800F093FD0121084800F09FFD0028F5
:10140000F9D005484FF4005100F004FCBDE8084055
:10141000024800F085BD00BF0010014000380040C8
:1014200008B54FF400510F4800F0F6FB02210E48BA
:1014300000F084FD0028F9D048F280710A4800F0DD
:101440006DFD0121084800F079FD0028F9D005481C
:101450004FF4005100F0DEFBBDE80840024800F008
:101460005FBD00BF001001400038004008B54FF4D8
:1014700000510F4800F0D0FB02210E4800F05EFD45
:101480000028F9D048F24B710A4800F047FD0121CD
:10149000084800F053FD0028F9D005484FF40051EA
:1014A00000F0B8FBBDE80840024800F039BD00BFBD
:1014B000001001400038004008B54FF400510F48BB
:1014C00000F0AAFB02210E4800F038FD0028F9D0F8
:1014D00048F243710A4800F021FD0121084800F05C
:1014E0002DFD0028F9D005484FF4005100F092FB83
:1014F000BDE80840024800F013BD00BF00100140E5
:101500000038004010B54FF40051204800F084FB33
:1015100002211F4800F012FD0028F9D041F2FF110E
:101520001B4800F0FBFC0121194800F007FD0028D2
:10153000F9D04FF40051154800F06CFB144800F04E
:10154000EFFCC0F34604503C4FF400510F4864B226
:1015500000F062FB02210E4800F0F0FC0028F9D0F8
:1015600048F680710A4800F0D9FC0121084800F0D3
:10157000E5FC0028F9D04FF40051044800F04AFB84
:10158000034800F0CDFC204610BD00BF0010014014
:1015900000380040F0B401240178C37801F01F0244
:1015A00094404E092BB90F4B203643F82640F0BC2F
:1015B00070470D4B4778DD688278E8430F23C0F30E
:1015C0000220C0F10405C34007FA05F513402B4380
:1015D000044A1B01DBB2114481F8003342F8264073
:1015E000F0BC704700E100E000ED00E021F0604158
:1015F00021F07F01014B01439960704700ED00E04D
:10160000044A136919B923EA0000106170471843AE
:101610001061704700ED00E0436830B423F470239C
:101620000C790A6823F4807343EA0423134343606C
:1016300085680A4AD1E902432A4023434C7913437F
:1016400043EA440383600A7CC36A013AD2B223F4BA
:10165000700343EA0253C36230BC7047FDF7F1FFE9
:10166000836819B923F001038360704743F00103D5
:1016700083607047836819B923F48073836070476F
:1016800043F4807383607047836843F0080383608A
:10169000704700BF8068C0F3C0007047836843F0A4
:1016A00004038360704700BF8068C0F38000704708
:1016B000836819B923F4A0038360704743F4A0033F
:1016C00083607047092970B41DD90726A1F10A0467
:1016D00004EB4404C568A640A34025EA060423435E
:1016E000062AC3604FF01F041BD90C2A25D90D3AD6
:1016F00002EB8202C36A9440914023EA0402114340
:10170000C16270BC7047072501EB41060469B54012
:1017100024EA0504B3402343062A03614FF01F0463
:10172000E3D8013A02EB8202436B9440914023EAF2
:1017300004021143416370BC7047073A02EB820216
:10174000036B9440914023EA04021143016370BC8F
:10175000704700BF10B44FF6FE74002302683B4987
:10176000224088420260036043608360C36026D0E9
:10177000374B984237D0374B984227D0364B984258
:1017800038D0364B98423CD0354B984225D0354B1B
:10179000984242D0344B984245D0344B984248D07E
:1017A000334B984233D0334B984248D0324B984217
:1017B0000AD1324A536843F47023536004E0304A3C
:1017C000536843F00F03536010BC70472C4A10BCA1
:1017D000536843F4706353607047294A536843F475
:1017E00070035360F0E7264A10BC536843F0F003DF
:1017F00053607047224A10BC536843F470435360EF
:1018000070471F4A536843F470235360DCE71B4A58
:10181000536843F470635360D6E7194A536843F042
:1018200070635360D0E7154A536843F00F03536069
:10183000CAE7124A536843F0F0035360C4E70F4A03
:10184000536843F470435360BEE700BF0800024092
:101850001C00024030000240440002405800024098
:101860006C00024080000240080402401C04024058
:101870003004024044040240580402400004024084
:10188000000002408B6830B40C6A0A6923434C693B
:1018900013438A692343CC694D6A13430268234387
:1018A0008C6A2B4322F4FF42CD68234322F070025E
:1018B0001343D1E90041036045608460C16030BCDE
:1018C000704700BF29B94FF6FE72036813400360EA
:1018D0007047036843F0010303607047034A1368CD
:1018E00003F0380318431060704700BF0020024027
:1018F000044B1A6822F010021A601A68104318602C
:10190000704700BF0020024030B4CC78E30648BFE7
:101910008B7804F00F0548BF1D430B8813F0FF0FB1
:1019200033D0482C026800F0F480282C00F033817A
:10193000D90744BF22F00F022A43990744BF22F07F
:10194000F00242EA0512590744BF22F4706242EAEB
:101950000522190744BF22F4704242EA0532D90633
:1019600044BF22F4702242EA0542990644BF22F4A1
:10197000700242EA0552590644BF22F0706242EA00
:101980000562190600F104810260FF2B4BD9282C57
:1019900042684AD0482C40F08E80D90505D54FF4D6
:1019A000807122F00F022A4301619C0506D54FF495
:1019B000007122F0F00242EA05120161590506D5D4
:1019C0004FF4806122F4706242EA052201611C0535
:1019D00006D54FF4006122F4704242EA05320161FB
:1019E000D90406D54FF4805122F4702242EA054210
:1019F00001619C0406D54FF4005122F4700242EAC2
:101A000005520161590406D54FF4804122F07062FD
:101A100042EA056201611C0404D54FF4004365F3FA
:101A20001F720361426030BC7047D90505D54FF481
:101A3000807122F00F022A4341619C0506D54FF4C4
:101A4000007122F0F00242EA05124161590506D503
:101A50004FF4806122F4706242EA052241611C0564
:101A600006D54FF4006122F4704242EA053241612A
:101A7000D90406D54FF4805122F4702242EA05427F
:101A800041619C0406D54FF4005122F4700242EAF1
:101A900005524161590406D54FF4804122F070622D
:101AA00042EA056241611B04BCD54FF4004365F373
:101AB0001F724361B6E7D90544BF22F00F022A43E3
:101AC0009C0544BF22F0F00242EA0512590544BFCA
:101AD00022F4706242EA05221C0544BF22F47042DF
:101AE00042EA0532D90444BF22F4702242EA054298
:101AF0009C0444BF22F4700242EA0552590444BFD8
:101B000022F0706242EA05621C048BD565F31F72F5
:101B100088E7D90704D5012122F00F022A43016189
:101B2000990705D5022122F0F00242EA051201616F
:101B3000590705D5042122F4706242EA05220161A9
:101B4000190705D5082122F4704242EA05320161E5
:101B5000D90605D5102122F4702242EA054201611E
:101B6000990605D5202122F4700242EA055201614E
:101B7000590605D5402122F0706242EA05620161F2
:101B800019067FF501AF802165F31F720161FBE645
:101B900065F31F72F8E6D90704D5012122F00F0280
:101BA0002A434161990705D5022122F0F00242EA59
:101BB00005124161590705D5042122F4706242EAF9
:101BC00005224161190705D5082122F4704242EA35
:101BD00005324161D90605D5102122F4702242EA6E
:101BE00005424161990605D5202122F4700242EA9E
:101BF00005524161590605D5402122F0706242EA42
:101C00000562416119067FF5BFAE802165F31F7241
:101C10004161B9E6016170474161704710B400202D
:101C20004FF41F040D4B0E4A196841F00101196071
:101C300059680A405A601A6822F0847222F480328D
:101C40001A601A6822F480221A605A6822F4FE028E
:101C50005A609C60D86210BC704700BF0010024000
:101C60000000FFF80C4BB0F5803F1A6822F4803278
:101C70001A601A6822F480221A6008D0B0F5802F0A
:101C800004D11A6842F4A0221A60704770471A689B
:101C900042F480321A60704700100240002382B084
:101CA000094A0193136813F4003F019B03F10103F8
:101CB0000193019B02D1B3F5A06FF3D1024B1868D9
:101CC000C0F3404002B0704700100240034A53681E
:101CD00023F0030318435060704700BF0010024018
:101CE000024B586800F00C00704700BF0010024023
:101CF000034A536823F0F00318435060704700BF55
:101D000000100240034A536823F4E0631843506014
:101D1000704700BF00100240034A536823F4605329
:101D200043EAC0005060704700100240034A536805
:101D300023F4404318435060704700BF0010024036
:101D4000224A10B4536803F00C03042B2FD0082B45
:101D500020D01F4B03601D491E4A4C68C4F3031476
:101D6000145DE34043604C68C4F30224145D23FA1D
:101D700004F484604C68C4F3C224145DE340C3607F
:101D8000496810BCC1F381310A44127CB3FBF2F301
:101D90000361704753685168C3F38343C90303F178
:101DA000020307D40C4A02FB03F30360D3E70B4B97
:101DB0000360D0E7D26A094902F00F020132B1FB99
:101DC000F2F203FB02F30360C5E700BF001002401C
:101DD00000127A006400002000093D0000366E0108
:101DE000044A536919B923EA000050617047184347
:101DF0005061704700100240044A936919B923EA00
:101E000000009061704718439061704700100240D5
:101E1000044AD36919B923EA0000D0617047184316
:101E2000D061704700100240044AD36819B923EA10
:101E30000000D06070471843D06070470010024027
:101E4000044A136919B923EA000010617047184366
:101E5000106170470010024008B5174B984206D039
:101E6000164B98421BD0164B98420CD008BD01214E
:101E70004FF48050FFF7D8FFBDE8084000214FF431
:101E80008050FFF7D1BF01214FF40040FFF7D8FF8A
:101E9000BDE8084000214FF40040FFF7D1BF012109
:101EA0004FF48040FFF7CCFFBDE8084000214FF41D
:101EB0008040FFF7C5BF00BF003001400038004040
:101EC000003C00404A880B8830B48C881343CA8891
:101ED00023430C8913434A898D8923431343CC89B7
:101EE00002882B43234302F4415213430380838B24
:101EF0000A8A23F400631B041B0C838330BC028218
:101F0000704700BF038829B923F040031B041B0C52
:101F10000380704743F0400303807047818170471E
:101F200080897047838829B923F004031B041B0CA4
:101F30008380704743F0040383807047038919420C
:101F400014BF012000207047274A0388904270B4D4
:101F50009BB212D002F5006290420ED0B0F1804FD9
:101F60000BD0A2F59832904207D002F580629042E1
:101F700003D002F58062904203D14A8823F07003B7
:101F800013431A4D8C88A8420A8815D005F5806540
:101F9000A84211D0CE8823F440739BB205F58C354E
:101FA0003343A8420380848502850CD170BC0B7A30
:101FB0000386012383827047038084850285012381
:101FC00070BC838270470A4B9842EFD003F54063A0
:101FD0009842EBD003F580639842E7D003F5806325
:101FE0009842E3D0EBE700BF002C01400010004016
:101FF00000340140038829B923F001031B041B0CA2
:102000000380704743F001030380704783891AB946
:1020100023EA01018181704719438181704700BF24
:102020008184704781857047038A828911EA0300A1
:1020300092B203D00A4214BF01200020704700BFB3
:10204000C94389B20182704730B50D460446038A00
:10205000CA889BB223F4405313438A890382808940
:10206000234B8988034028890B43698903430B4329
:10207000A381A38A87B09BB223F44073134301A8C2
:10208000A382FFF75DFEDDE903311A482A68844226
:1020900008BF0B46A18903EB830309044CBF520020
:1020A000920003EB8303B3FBF2F364221248A58989
:1020B000A0FB03C1490902FB11332A044FEA0111B5
:1020C0000AD41B013233A0FB0323C3F343130B4396
:1020D0009BB2238107B030BDDA003232A0FB02325E
:1020E000C2F3421242EA01039BB2238107B030BD22
:1020F000F3E9FFFF003801401F85EB51838929B9BF
:1021000023F400531B041B0C8381704743F40053DA
:1021100083817047012310B401F01F04C1F3421101
:10212000012903FA04F30FD002290CBF1030143038
:102130002AB9026810BC22EA0303036070470268F0
:1021400010BC1343036070470C30F1E7C1F3080182
:10215000818070478088C0F3080070470388194267
:1021600014BF0120002070470123C1F3421210B4B4
:10217000012A01F01F0403FA04F314D0022A0CBF51
:10218000028A828A1340028892B24BB10123090A63
:1021900003FA01F10A4214BF1846002010BC704730
:1021A000184610BC704782891340ECE70123090AE6
:1021B0008B40DB439BB20380704700BF044A054954
:1021C0001368002B08BF0B46184410601846704770
:1021D000EC0000209C040020FEE700BF2DE9F84F32
:1021E0001C464518EDB2EB18DBB24FEA1429054442
:1021F00003EB09071D44FFB23D4480468A4616465C
:10220000EDB24CB10023F25C01331744FFB2DBB2F4
:102210003D449C42EDB2F6D8DFF870B140215846FB
:10222000FFF79CFF0028F9D0B5215848FFF78EFF33
:10223000DFF858B140215846FFF790FF0028F9D049
:10224000DFF848B140215846FFF788FF0028F9D051
:1022500062214E48FFF77AFFDFF830B1402158463F
:10226000FFF77CFF0028F9D0DFF820B14021584665
:10227000FFF774FF0028F9D041464448FFF766FF96
:10228000DFF8088140214046FFF768FF0028F9D0B9
:10229000DFF8F88040214046FFF760FF0028F9D0C2
:1022A00051463A48FFF752FFDFF8E08040214046B0
:1022B000FFF754FF0028F9D0DFF8D08040214046D6
:1022C000FFF74CFF0028F9D021463048FFF73EFFCA
:1022D000DFF8B88040214046FFF740FF0028F9D0E2
:1022E000DFF8A88040214046FFF738FF0028F9D0EA
:1022F00049462648FFF72AFFDFF8908040214046F4
:10230000FFF72CFF0028F9D0D4B104F1FF381FFAF1
:1023100088F81E4CB044013E16F8019F402120462B
:10232000FFF71CFF0028F9D049462046FFF70EFFB3
:1023300040212046FFF712FF0028F9D0B045EBD12D
:10234000124C40212046FFF709FF0028F9D03946FA
:102350000E48FFF7FBFE0D4C40212046FFF7FEFE26
:102360000028F9D0094C40212046FFF7F7FE00284D
:10237000F9D029460548FFF7E9FE044C40212046E4
:10238000FFF7ECFE0028F9D0BDE8F88F00380140D7
:1023900030B4054672B6064C0FCC28606960AA605E
:1023A000EB6007CC28616961AA6162B630BC7047F6
:1023B0007C0400202DE9F0430124FFB05A220021C3
:1023C00003A802F010FDBE4ABE4B21464FF4164052
:1023D000CDE901238DF80C40FDF782FF0A20FDF7BF
:1023E00017FFBDF808300DF10A029DF807109DF89F
:1023F0000600FFF7F3FE4FF44870FDF709FF214692
:102400004FF41650FDF76CFF0A20FDF701FFBDF8F1
:1024100008300DF10A029DF807109DF80600FFF73D
:10242000DDFE4FF44870FDF7F3FE602200210DF150
:102430006A0002F0D8FC0DF16D08002346F2B529C0
:102440004FF0060E4FF0140C4FF40C604FF4164191
:102450004FF00112464640251A27ADF87430ADF80A
:1024600078308DF86E40ADF868908DF86AE0ADF880
:102470006CC0ADF87200ADF87610CDF87A200DF191
:10248000810316F8011F3944CFB23D44B342EDB287
:10249000F7D18D4C40212046FFF760FE0028F9D08F
:1024A000B5218948FFF752FE874C40212046FFF7AF
:1024B00055FE0028F9D0844C40212046FFF74EFEFF
:1024C0000028F9D062218048FFF740FE7E4C402171
:1024D0002046FFF743FE0028F9D07B4C40212046E0
:1024E000FFF73CFE0028F9D006217748FFF72EFEC3
:1024F000754C40212046FFF731FE0028F9D0724C80
:1025000040212046FFF72AFE0028F9D000216E481E
:10251000FFF71CFE6C4C40212046FFF71FFE0028F1
:10252000F9D0694C40212046FFF718FE0028F9D069
:1025300014216548FFF70AFE634C40212046FFF74F
:102540000DFE0028F9D0604C40212046FFF706FE22
:102550000028F9D000215C48FFF7F8FD5A4C4021D3
:102560002046FFF7FBFD0028F9D0574C18F8019FD3
:1025700040212046FFF7F2FD0028F9D049462046C9
:10258000FFF7E4FD40212046FFF7E8FD0028F9D0E1
:102590004645EBD14C4C40212046FFF7DFFD00289B
:1025A000F9D039464848FFF7D1FD474C4021204635
:1025B000FFF7D4FD0028F9D0434C40212046FFF717
:1025C000CDFD0028F9D029463F48FFF7BFFD3E4C1E
:1025D00040212046FFF7C2FD0028F9D001214FF429
:1025E0001640FDF77DFE0A20FDF712FE5A2200215B
:1025F00035A802F0F8FB0026022311210620334DF6
:10260000334A344CCDE933520DF1D202FFF7E6FDE7
:10261000C9252670667008E063784BB90120FDF784
:10262000F7FD6B1E13F0FF0502D02378002BF3D0CB
:10263000237833B99DF8CE009DF8CF10BDF8D03087
:10264000E2E75A2200214EA802F0CDFB012203232B
:10265000062000261146204D8DF838211F4A4C9542
:102660004D920DF59B72FFF7B9FDC9252670667076
:1026700008E063784BB90120FDF7CAFD6B1E13F02B
:10268000FF0502D02378002BF3D0237833B99DF8CF
:1026900032019DF83311BDF83431E2E706230026FC
:1026A0008DF83731BDF834310DF59B729DF833113B
:1026B0009DF83201FFF792FDC9252670667018E07B
:1026C000B56206040400FFFF00380140B562061140
:1026D00002000804F0000020B562060103000102B8
:1026E00063784BB90120FDF793FD6B1E13F0FF05D6
:1026F00002D02378002BF3D02378002BD2D02123D3
:1027000000268DF83731BDF834310DF59B729DF8F8
:1027100033119DF83201FFF761FDC92526706670FF
:1027200008E063784BB90120FDF772FD6B1E13F0D2
:10273000FF0502D02378002BF3D02378002BE2D0C2
:10274000582200210DF5CF7002F04DFB242300220A
:10275000022540F2072842F2107E4FF0050C4FF0A0
:102760001917194606201646ADF8A421174A8DF808
:10277000B1516592164D174AADF89C81ADF8A2E1B2
:102780008DF8A6C16A9766956B920DF5CD72FFF72D
:1027900025FDC9252670667008E063784BB90120D5
:1027A000FDF736FD6B1E13F0FF0502D02378002BDA
:1027B000F3D0237833B99DF896019DF89711BDF8B1
:1027C0009831E2E77FB0BDE8F08300BFB562062430
:1027D0002400FF0364002C01F0B48578C678848857
:1027E000AB19DBB21A19D2B202EB14212B441A44F2
:1027F000CFB23A44D2B200F1060C54B100231CF817
:10280000031001333944CFB2DBB23A449C42D2B216
:10281000F5D81CF804306444BB4205D02B4A138B16
:1028200001331383F0BC704763789342F6D1012DD6
:1028300009D0052DF6D1012E45D0002EF2D101226E
:10284000234B5A70EEE7072E0DD0022E26D0062E0F
:1028500032D0212EE6D11D4B847DC17D027EDC74F9
:1028600099745A74DEE7194B817EDA8A1975013240
:10287000DA82D0F82210827B1960D0F81E40417FA6
:102880005C60D0F82A40DA74C27B9C609A74027C47
:1028900019745A74D0F84220DA60C3E70B4BDA8A15
:1028A0000132DA82D0F80E201A60D0F80A205A607D
:1028B000D0F816209A60B5E7044B017C90F83520DB
:1028C00019751A74AEE7024B1E70ABE77C0400204A
:1028D000F000002010B5184CE278A3782AB9B3B9FB
:1028E000B5281DD00023A37010BDE218042B107171
:1028F00004D92289591E0832914215D00133DBB226
:10290000632B89BF0023A370A370E37010BD012B5C
:10291000E8D16228E6D10222E3706071A27010BD96
:1029200001232071A37010BD201DFFF755FF002368
:10293000A370E37010BD00BFF0000020A1F17E0283
:10294000B2FA82F22DE9F84300232C4C5209894651
:1029500005461F4640F289164FF001082270637049
:102960000FE0002B3AD084F803800121FDF72EFC04
:1029700063784FEA59090133DBB2072B63703BD808
:10298000227809F00103A370B5F87001002AE8D19C
:102990002A8882EA0301C9074FEA520244BF82F43F
:1029A000044282F008022A80C3B1E3780133DBB22B
:1029B000052BE370D9D10121FDF708FC95F86931A9
:1029C000E770022B15BF02220122CA23334685F885
:1029D0006921A5F86E31B5F87001C6E795F869313F
:1029E000E770022B0BBF012202223346CA2385F86F
:1029F0006921A5F86E31B8E7BDE8F8835C010020D5
:102A00002DE9F04F834683B0714888460192FEF766
:102A100035FC012205217220FEF702FC4FF4005123
:102A20006C48FFF7F7F8012212217120FEF7F8FB3E
:102A3000FDF7C0FE0123BBF804018BF86C3108B12F
:102A4000FDF7E6FB9BF86B31002B40F0B6800123CD
:102A50004FF400418BF86B315F48FFF7DBF84FF024
:102A6000804200254FF001094FF6FF71138823F0D3
:102A700001031B041B0C1380BBF86E3193859584F6
:102A8000138843EA090313809BF80230ABF8001067
:102A90008BF86991002B00F099802E464F4C012154
:102AA0004FF07E0A40F2891784F8009066700FE0BC
:102AB000002B3DD084F803900121FDF787FB63785C
:102AC0004FEA5A0A0133DBB2072B63703ED82178F4
:102AD0000AF00103A370BBF870010029E8D1BBF82C
:102AE000001081EA030C1CF0010F4FEA51011CBFDA
:102AF00081F4044181F00801ABF80010C3B1E37820
:102B00000133DBB2052BE370D6D10121FDF75EFB6B
:102B10009BF86931E670022B15BF02210121CA23FF
:102B20003B468BF86911ABF86E31BBF87001C3E717
:102B30009BF86931E670022B0BBF012102213B4655
:102B4000CA238BF86911ABF86E31B5E701359BF8F4
:102B50000230EDB2AB42A2D8019B43B143449A4646
:102B600018F8011B5846FFF7E9FED045F8D1BBF82D
:102B700000300025D9436FEA13235846C9B22371A8
:102B8000FFF7DCFE21795846FFF7D8FE7E21584634
:102B9000FFF7D4FEFDF7D2FD8BF86C511048FEF71D
:102BA0006DFB294601227120FEF73AFB4B20FDF711
:102BB00019FE284603B0BDE8F08F00234FF4004112
:102BC0008BF86B310448FFF727F848E7034CC3E75D
:102BD0000040D84300100140000C01405C0100207F
:102BE0000040D9432DE9F047044608464FF020390C
:102BF0000F4602F029F904F10B0394F80C81C4F894
:102C00000B90A4F80F9004F583710622261D05464B
:102C1000184694F813A102F01FF9C4F80490304646
:102C2000A6F8049004F20D11062202F015F9B8F18D
:102C3000400F04F58A7984F80AA003D9A8F10608A0
:102C40005FFA88F884F81180484602F0FDF849469A
:102C5000421C5FFA80F804F1120002F0B9F8002378
:102C600008F10E00E1180A790133DBB25200834209
:102C70000A71F7D34FF0030E4FF0F00C08F10D037B
:102C800023441A79204442F001021A7180F804E0CA
:102C900004EB080308F1100039462A46304483F853
:102CA00013C002F0D9F805F1100242443146204623
:102CB000BDE8F047FFF7A4BEF8B508460F46154635
:102CC00002F0C2F8C0B2002848D001388646C0B22F
:102CD00000234FF0200C3A187C1E0BE02D2808BF73
:102CE0002020E11B8E4503F10101E854CBB205D051
:102CF000944232D014F8010F2C28EFD1062B30D893
:102D0000C3F10700C0B25E1C012805F803C0F6B28B
:102D10001FD0991C022805F806C0C9B219D0DE1CC4
:102D2000032805F801C0F1B213D01E1D042805F8D0
:102D300001C0F1B20DD05E1D052805F801C0F1B249
:102D400007D09E1D05F801C00628F1B218BF05F88E
:102D500001C003449442DBB2CCD11D4400232B704C
:102D6000F8BDA3F10801052903D8C3F10E00C0B2D4
:102D7000C9E7A3F10F010529BAD8C3F11500C0B204
:102D8000C1E700BF2DE9F04F0446012619200027B6
:102D90004FF02035DFF894E0DFF894C083B0CEF830
:102DA0000840C4F86EC184F86811E270A070A4F8FD
:102DB000046184F86A6101939DF830B0DDF834A0B5
:102DC0009DF83890DDF83C80FDF7B8FC84F86C7114
:102DD0001548FEF753FA324639467120FEF720FABD
:102DE0004B20FDF7FFFC019B04F58372194610464A
:102DF000C4F80651A4F80A5102F01EF804F20D10AE
:102E000084F80CB1C4F80D515146858002F014F8D5
:102E10004146204604F58A7284F8139103B0BDE858
:102E2000F04FFFF749BF00BF0040D9435C010020CD
:102E300089011B0310B590F86B310446CBB901230F
:102E40004FF4004180F86B310E48FEF7E3FE4FF07F
:102E500080420021138823F001031B041B0C138004
:102E6000B4F86E3193859184138843F00103138085
:102E700010BD00234FF4004180F86B310148FEF78C
:102E8000CBFEE4E7000C014010B5002230244221C3
:102E90000648074B84B000910390019302941146B9
:102EA000044B0548FFF76EFF04B010BD3058000812
:102EB00040580008285800086C0100200148FFF71E
:102EC000B9BF00BF6C010020014B93F86C01704743
:102ED0006C01002084B02DE9F04F764CADB036AED9
:102EE00086E80F0084FB0034C217C2EBA404002C58
:102EF0009DF9F470BDF8F8C040F397806E4B6F49B0
:102F000083FB0035C2EBA55252B201FB02416C4B70
:102F1000C1EB0111890083FB01036A4DC81785FBD2
:102F20000141C0EBA34303EB8305C0EB2131C3EBAD
:102F3000C50501EB8505EDB237995E4EC81786FBD6
:102F40000146C0EBA604002C40F39080DFF868E156
:102F50005A4E8EFB01E1C0EBA15148B206FB004680
:102F60005749C6EB0616B60081FB0641554C4FEAA1
:102F7000E67E84FB0646CEEBA14101EB8104CEEB5D
:102F80002636C1EBC40406EB8404E4B2002A80EACE
:102F9000E07EAEEBE07ED4BF4FF053084FF04E081A
:102FA000DFF830A100283898D8BF4FF057094FEA12
:102FB000E07B8AFB00604FF44D66C8BF4FF04509C7
:102FC000CBEBA01006FB00F0C9B28AFB006A3E4EB4
:102FD000CDF828C00391B6F87411C01701310997D4
:102FE00004948FB2394C9DF8E810002AC0EBAA1067
:102FF0000690CDF808E008910095DBB2CDF804808A
:103000000797CDF81490B8BF52420B940CA83049E2
:10301000A6F8747101F0F0FE0CA93046FFF7E2FD4E
:103020002DB0BDE8F04F04B07047254B6242A3FBC2
:1030300002122249920C50B201FB00F1091BC1EBB4
:103040000111890083FB01031E4DC81785FB014157
:10305000C0EBA34303EB8305C0EB2131C3EBC505F4
:10306000524201EB850552B2EDB265E71449604268
:10307000A1FB0060114E800C4FFA80FE06FB0EF69D
:10308000361BC6EB0616B60081FB06410D4C4FEA17
:10309000E67E84FB0646CEEBA14101EB8104CEEB3C
:1030A0002636C1EBC404404206EB840440B2E4B2CD
:1030B0006CE700BF676666666BCA5F6BC0BDF0FFFA
:1030C00083DE1B43AD8BDB686C0100209458000845
:1030D00058580008D34D621081F0004102E000BF53
:1030E00083F0004330B54FEA41044FEA430594EAC8
:1030F000050F08BF90EA020F1FBF54EA000C55EA03
:10310000020C7FEA645C7FEA655C00F0E2804FEAD3
:103110005454D4EB5555B8BF6D420CDD2C4480EAB5
:10312000020281EA030382EA000083EA010180EAE5
:10313000020281EA0303362D88BF30BD11F0004F33
:103140004FEA01314FF4801C4CEA113102D0404269
:1031500061EB410113F0004F4FEA03334CEA1333A4
:1031600002D0524263EB430394EA050F00F0A780BC
:10317000A4F10104D5F1200E0DDB02FA0EFC22FAB7
:1031800005F2801841F1000103FA0EF2801843FAAB
:1031900005F359410EE0A5F120050EF1200E012A9C
:1031A00003FA0EFC28BF4CF0020C43FA05F3C018DA
:1031B00051EBE37101F0004507D54FF0000EDCF153
:1031C000000C7EEB00006EEB0101B1F5801F1BD3FC
:1031D000B1F5001F0CD349085FEA30004FEA3C0C00
:1031E00004F101044FEA445212F5800F80F09A80F6
:1031F000BCF1004F08BF5FEA500C50F1000041EBFA
:10320000045141EA050130BD5FEA4C0C404141EBFD
:10321000010111F4801FA4F10104E9D191F0000F24
:1032200004BF01460020B1FA81F308BF2033A3F1A7
:103230000B03B3F120020CDA0C3208DD02F1140C9E
:10324000C2F10C0201FA0CF021FA02F10CE002F1D9
:103250001402D8BFC2F1200C01FA02F120FA0CFCD2
:10326000DCBF41EA0C019040E41AA2BF01EB04511B
:10327000294330BD6FEA04041F3C1CDA0C340EDC19
:1032800004F11404C4F1200220FA04F001FA02F35C
:1032900040EA030021FA04F345EA030130BDC4F11A
:1032A0000C04C4F1200220FA02F001FA04F340EA0F
:1032B0000300294630BD21FA04F0294630BD94F0C0
:1032C000000F83F4801306BF81F480110134013DA7
:1032D0004EE77FEA645C18BF7FEA655C29D094EA18
:1032E000050F08BF90EA020F05D054EA000C04BF96
:1032F0001946104630BD91EA030F1EBF0021002081
:1033000030BD5FEA545C05D14000494128BF41F01F
:10331000004130BD14F580043CBF01F5801130BD83
:1033200001F0004545F0FE4141F470014FF000000E
:1033300030BD7FEA645C1ABF194610467FEA655CBF
:103340001CBF0B46024650EA013406BF52EA033561
:1033500091EA030F41F4002130BD00BF90F0000F4F
:1033600004BF0021704730B54FF4806404F132048B
:103370004FF000054FF0000150E700BF90F0000F44
:1033800004BF0021704730B54FF4806404F132046B
:1033900010F0004548BF40424FF000013EE700BF3B
:1033A00042004FEAE2014FEA31014FEA02701FBFCB
:1033B00012F07F4393F07F4F81F06051704732F0FD
:1033C0007F4208BF704793F07F4F04BF41F4002154
:1033D000704730B54FF4607401F0004521F00041B2
:1033E0001CE700BF50EA010208BF704730B54FF03C
:1033F00000050AE050EA010208BF704730B511F03D
:10340000004502D5404261EB41014FF4806404F174
:1034100032045FEA915C3FF4D8AE4FF003025FEAFA
:10342000DC0C18BF03325FEADC0C18BF033202EB7E
:10343000DC02C2F1200300FA03FC20FA02F001FAD8
:1034400003FE40EA0E0021FA02F11444BDE600BF7B
:1034500070B54FF0FF0C4CF4E06C1CEA11541DBF2A
:103460001CEA135594EA0C0F95EA0C0F00F0DEF8F5
:103470002C4481EA030621EA4C5123EA4C5350EADA
:10348000013518BF52EA033541F4801143F480132B
:1034900038D0A0FB02CE4FF00005E1FB02E506F0BC
:1034A0000042E0FB03E54FF00006E1FB03569CF011
:1034B000000F18BF4EF0010EA4F1FF04B6F5007F17
:1034C00064F5407404D25FEA4E0E6D4146EB060689
:1034D00042EAC62141EA55514FEAC52040EA5E5012
:1034E0004FEACE2EB4F1FD0C88BFBCF5E06F1ED8BC
:1034F000BEF1004F08BF5FEA500E50F1000041EBF3
:10350000045170BD06F0004646EA010140EA02009F
:1035100081EA0301B4EB5C04C2BFD4EB0C0541EAC1
:10352000045170BD41F480114FF0000E013C00F3D6
:10353000AB8014F1360FDEBF002001F0004170BDFA
:10354000C4F10004203C35DA0C341BDC04F1140413
:10355000C4F1200500FA05F320FA04F001FA05F29F
:1035600040EA020001F0004221F0004110EBD3706C
:1035700021FA04F642EB06015EEA430E08BF20EA98
:10358000D37070BDC4F10C04C4F1200500FA04F33B
:1035900020FA05F001FA04F240EA020001F00041CD
:1035A00010EBD37041F100015EEA430E08BF20EA40
:1035B000D37070BDC4F1200500FA05F24EEA020E88
:1035C00020FA04F301FA05F243EA020321FA04F0B7
:1035D00001F0004121FA04F220EA020000EBD3706E
:1035E0005EEA430E08BF20EAD37070BD94F0000F6E
:1035F0000FD101F00046400041EB010111F4801FA2
:1036000008BF013CF7D041EA060195F0000F18BF52
:10361000704703F00046520043EB030313F4801F8E
:1036200008BF013DF7D043EA0603704794EA0C0F48
:103630000CEA135518BF95EA0C0F0CD050EA41065E
:1036400018BF52EA4306D1D181EA030101F00041DB
:103650004FF0000070BD50EA410606BF1046194603
:1036600052EA430619D094EA0C0F02D150EA01360F
:1036700013D195EA0C0F05D152EA03361CBF104650
:1036800019460AD181EA030101F0004141F0FE41EF
:1036900041F470014FF0000070BD41F0FE4141F473
:1036A000780170BD70B54FF0FF0C4CF4E06C1CEA73
:1036B00011541DBF1CEA135594EA0C0F95EA0C0F28
:1036C00000F0A7F8A4EB050481EA030E52EA0335E3
:1036D0004FEA013100F088804FEA03334FF0805504
:1036E00045EA131343EA12634FEA022245EA111531
:1036F00045EA10654FEA00260EF000419D4208BFE2
:10370000964244F1FD0404F5407402D25B084FEA8E
:103710003202B61A65EB03055B084FEA32024FF43A
:1037200080104FF4002CB6EB020E75EB030E22BF97
:10373000B61A754640EA0C005B084FEA3202B6EB57
:10374000020E75EB030E22BFB61A754640EA5C0006
:103750005B084FEA3202B6EB020E75EB030E22BF96
:10376000B61A754640EA9C005B084FEA3202B6EB97
:10377000020E75EB030E22BFB61A754640EADC0056
:1037800055EA060E18D04FEA051545EA16754FEAB8
:1037900006164FEAC30343EA52734FEAC2025FEAD6
:1037A0001C1CC0D111F4801F0BD141EA00014FF065
:1037B00000004FF0004CB6E711F4801F04BF014336
:1037C0000020B4F1FD0C88BFBCF5E06F3FF6AFAE52
:1037D000B5EB030C04BFB6EB020C5FEA500C50F1E2
:1037E000000041EB045170BD0EF0004E4EEA113165
:1037F00014EB5C04C2BFD4EB0C0541EA045170BD6C
:1038000041F480114FF0000E013C90E645EA060EAF
:103810008DE60CEA135594EA0C0F08BF95EA0C0FDD
:103820003FF43BAF94EA0C0F0AD150EA01347FF425
:1038300034AF95EA0C0F7FF425AF104619462CE7FC
:1038400095EA0C0F06D152EA03353FF4FDAE10465F
:10385000194622E750EA410618BF52EA43067FF4B0
:10386000C5AE50EA41047FF40DAF52EA43057FF440
:10387000EBAE12E74FEA410212F5001215D211D554
:103880006FF47873B3EB625212D94FEAC12343F05D
:10389000004343EA505311F0004F23FA02F018BFDF
:1038A000404270474FF00000704750EA013005D1A8
:1038B00011F0004008BF6FF0004070474FF000006B
:1038C000704700BF80F0004002E000BF81F000417F
:1038D00042001FBF5FEA410392EA030F7FEA226CB6
:1038E0007FEA236C6AD04FEA1262D2EB1363C1BF46
:1038F000D218414048404140B8BF5B42192B88BFB5
:10390000704710F0004F40F4000020F07F4018BFD7
:10391000404211F0004F41F4000121F07F4118BFF7
:10392000494292EA030F3FD0A2F1010241FA03FC9F
:1039300010EB0C00C3F1200301FA03F100F0004387
:1039400002D5494260EB4000B0F5000F13D3B0F14F
:10395000807F06D340084FEA310102F10102FE2ABE
:1039600051D2B1F1004F40EBC25008BF20F001002E
:1039700040EA03007047490040EB000010F4000FDC
:10398000A2F10102EDD1B0FA80FCACF1080CB2EB6F
:103990000C0200FA0CF0AABF00EBC25052421843CE
:1039A000BCBFD0401843704792F0000F81F4000173
:1039B00006BF80F400000132013BB5E74FEA410346
:1039C0007FEA226C18BF7FEA236C21D092EA030FB2
:1039D00004D092F0000F08BF0846704790EA010F2C
:1039E0001CBF0020704712F07F4F04D1400028BF59
:1039F00040F00040704712F100723CBF00F500003B
:103A0000704700F0004343F0FE4040F40000704770
:103A10007FEA226216BF08467FEA2363014642021C
:103A200006BF5FEA412390EA010F40F4800070472F
:103A30004FF0000304E000BF10F0004348BF4042D5
:103A40005FEA000C08BF704743F0964301464FF011
:103A500000001CE050EA010208BF70474FF000036D
:103A60000AE000BF50EA010208BF704711F00043AE
:103A700002D5404261EB41015FEA010C02BF84467E
:103A80000146002043F0B64308BFA3F18053A3F5DD
:103A90000003BCFA8CF2083AA3EBC25310DB01FA24
:103AA00002FC634400FA02FCC2F12002BCF1004FA8
:103AB00020FA02F243EB020008BF20F00100704739
:103AC00002F1200201FA02FCC2F1200250EA4C008D
:103AD00021FA02F243EB020008BF20EADC707047D3
:103AE0004FF0FF0C1CEAD0521EBF1CEAD15392EAE1
:103AF0000C0F93EA0C0F6FD01A4480EA010C4002BD
:103B000018BF5FEA41211ED04FF0006343EA501016
:103B100043EA5111A0FB01310CF00040B1F5000F58
:103B20003EBF490041EAD3715B0040EA010062F107
:103B30007F02FD2A1DD8B3F1004F40EBC25008BFF1
:103B400020F00100704790F0000F0CF0004C08BF0F
:103B500049024CEA502040EA51207F3AC2BFD2F1DC
:103B6000FF0340EAC250704740F400004FF00003EA
:103B7000013A5DDC12F1190FDCBF00F00040704724
:103B8000C2F10002410021FA02F1C2F1200200FA62
:103B900002FC5FEA310040F1000053EA4C0308BF29
:103BA00020EADC70704792F0000F00F0004C02BF7A
:103BB000400010F4000F013AF9D040EA0C0093F0F5
:103BC000000F01F0004C02BF490011F4000F013B4F
:103BD000F9D041EA0C018FE70CEAD15392EA0C0FBD
:103BE00018BF93EA0C0F0AD030F0004C18BF31F028
:103BF000004CD8D180EA010000F00040704790F0FE
:103C0000000F17BF90F0004F084691F0000F91F0A1
:103C1000004F14D092EA0C0F01D142020FD193EA67
:103C20000C0F03D14B0218BF084608D180EA0100EF
:103C300000F0004040F0FE4040F40000704740F0CB
:103C4000FE4040F4400070474FF0FF0C1CEAD05299
:103C50001EBF1CEAD15392EA0C0F93EA0C0F69D0F5
:103C6000A2EB030280EA010C49024FEA402037D060
:103C70004FF0805343EA111143EA10130CF0004057
:103C80008B4238BF5B0042F17D024FF4000C8B4247
:103C900024BF5B1A40EA0C00B3EB510F24BFA3EB27
:103CA000510340EA5C00B3EB910F24BFA3EB9103F7
:103CB00040EA9C00B3EBD10F24BFA3EBD10340EA51
:103CC000DC001B0118BF5FEA1C1CE0D1FD2A3FF697
:103CD00050AF8B4240EBC25008BF20F0010070474C
:103CE0000CF0004C4CEA50207F32C2BFD2F1FF03EF
:103CF00040EAC250704740F400004FF00003013A20
:103D000037E792F0000F00F0004C02BF400010F4C3
:103D1000000F013AF9D040EA0C0093F0000F01F0D7
:103D2000004C02BF490011F4000F013BF9D041EAF9
:103D30000C0195E70CEAD15392EA0C0F08D142022C
:103D40007FF47DAF93EA0C0F7FF470AF084676E7FF
:103D500093EA0C0F04D14B023FF44CAF08466EE7D8
:103D600030F0004C18BF31F0004CCAD130F00042A6
:103D70007FF45CAF31F000437FF43CAF5FE700BFFE
:103D80004FF0FF3C06E000BF4FF0010C02E000BF27
:103D90004FF0010C4DF804CD4FEA40024FEA4103C9
:103DA0007FEA226C18BF7FEA236C11D001B052EA7F
:103DB000530C18BF90EA010F58BFB2EB030088BF45
:103DC000C81738BF6FEAE17018BF40F001007047B4
:103DD0007FEA226C02D15FEA402C05D17FEA236C96
:103DE000E4D15FEA412CE1D05DF8040B704700BFDD
:103DF000844608466146FFE70FB5FFF7C9FF002874
:103E000048BF10F1000F0FBD4DF808EDFFF7F4FFAC
:103E10000CBF012000205DF808FB00BF4DF808ED45
:103E2000FFF7EAFF34BF012000205DF808FB00BF68
:103E30004DF808EDFFF7E0FF94BF012000205DF88A
:103E400008FB00BF4DF808EDFFF7D2FF94BF01203B
:103E500000205DF808FB00BF4DF808EDFFF7C8FF34
:103E600034BF012000205DF808FB00BF42000ED2E5
:103E7000B2F1FE4F0BD34FF09E03B3EB126209D4A5
:103E80004FEA002343F0004323FA02F070474FF05B
:103E90000000704712F1610F01D1420202D14FF0D0
:103EA000FF3070474FF00000704700BF03685A00B2
:103EB0004CBF43F0004323F000431844704700BF59
:103EC00061B32DE9F84F01F1FF3A90460646D1461D
:103ED000002707EB090404EBD4746410E5007119A2
:103EE0000846FFF7E3FFA245834605F1080030448A
:103EF00009D0FFF7DBFFC34500F1FF3005D840458F
:103F000009D2671CE5E7C34505D9A74202D004F1F1
:103F1000FF39DEE700210846BDE8F88F0846704704
:103F2000012807D0022807D0044B00280CBF1846F0
:103F30000020704702487047024870471D4600083D
:103F4000214600082546000830B5264B83B00446BC
:103F50008D1E4BB301A92846AFF30080F0B1019943
:103F60002A46FFF7ADFF0146C0B1FFF79FFF4B6840
:103F7000A064012B2FD0002B01F1040027DBFFF7F9
:103F800095FF0023C4E913030368002B13DBFFF73D
:103F90008DFF00232061184603B030BD09230022A5
:103FA0001846226103B030BD0F4B10491846C91A9C
:103FB000C9100191D4E7C3F30360FFF7B1FF0028F4
:103FC00014BF002309232061184603B030BD01232C
:103FD000C4E91303D8E7052300221846226103B081
:103FE00030BD00BF00000000F8580008F05900087C
:103FF000036810B5DA07044606D49B0700F14800B1
:1040000009D500F067FC2368590709D51A070ED5B2
:10401000DB0613D510BD00F055FC23685907F5D415
:1040200004F1D00000F05EFC23681A07F0D404F518
:10403000A87000F05FFC2368DB06EBD404F5E870A1
:10404000BDE8104000F09ABC036803B10344184671
:10405000704700BF09207047704700BF70B5044625
:104060000D4608E02A6C2369626121462A46012038
:104070009847082808D1296C2046FFF765FF0646B7
:104080000028EFD0FEF7A8F80728FBD13046296CAE
:10409000FFF7E2FF281D00F009FC00BF2DE9F04703
:1040A00005464FF0000CADF5727D03AC0E1D1746B2
:1040B0000FCE0FC40FCE0FC40FCE0FC496E80F0063
:1040C000D5F80C80D5F8189084E80F0002ACC4F83D
:1040D00000C021E0236C4FF4F0726B6121467AA896
:1040E00000F076FE2B697AAA294630469847889BCD
:1040F000CDE900498246636431462B462A460120B9
:10410000C0470746F8B94FF4F0727AA9204600F08C
:104110005FFEBAF1080F1CD1216C2846FFF714FF8F
:10412000002F08BF0926074618BF0A260028D1D04D
:10413000A36B46F01001CDE900492A4663640120D3
:104140002B46C04700B1092738460DF5727DBDE802
:10415000F087BAF1070FF6D13846216CFFF77CFFE4
:1041600003A800F0A3FB00BF406C70474FF0FF3C7A
:10417000F0B5CB6BF9B00B640D1D01AC0F460646D4
:104180000FCD0FC40FCD0FC40FCD0FC495E80F0096
:1041900084E80F00CDF800C006E033696A46314676
:1041A00098470828044608D110993046FFF7CCFEFE
:1041B0000028F2D0092079B0F0BD6846FFF718FF5B
:1041C000062CF7D139463046FFF748FF30B4DD6B97
:1041D000C160826119461D64002230BC5EE700BFE9
:1041E00070B54369C6680B64BEB903690A460446E4
:1041F0000D46014602209847072807D0082803D11A
:1042000029462046FFF72AFFFDF7E6FF3046296CD6
:10421000FFF722FF281D00F049FB0122FFF73EFFB8
:10422000FDF7DAFFC2682AB110B4CC6B00220C642F
:1042300010BC33E79AE700BF704700BF836813B133
:104240000146012018477047042907D8DFE801F02C
:104250000308060808000BB90F2A03D9022070478B
:104260000120704700EB820042681846009B1A60EC
:10427000704700BF002310B584B003AC0A46009419
:104280001946FFF7E1FF039804B010BD042907D8D1
:10429000DFE801F00308060808000BB90F2A03D96C
:1042A0000220704701207047009900EB82020968E4
:1042B00018465160704700BF002310B584B004ACAD
:1042C00044F8042D00940A461946FFF7DFFF04B0B6
:1042D00010BD00BF4FF0FF3CF0B5D36BADF50F7DC7
:1042E0001364151D17AC07460E460FCD0FC40FCD36
:1042F0000FC40FCD0FC495E80F0084E80F00CDF870
:1043000058C012E00C2116A86A46FFF7D5FF3146C7
:1043100016A8B84778B9049B16AA6946082098479A
:104320000528044608D0092805D026996846FFF7D5
:104330000BFE0028E6D0092416A8FFF759FE2046F8
:104340000DF50F7DF0BD00BF2DE9F04F0D46C96C96
:1043500089B00C1D164600F0030B0A681F46069430
:10436000002B68D00221130C8DF81D301204DBB233
:1043700004EB830405928DF81C102B6DBBF1020F2A
:1043800008BFAC6B13F0010346D1019300F00803A2
:104390000093D4F80090B9F1000F00F0F380022FE1
:1043A00045D0B4F80090B4F802800434AB6C28F027
:1043B000010A0F2130469A44FFF75CFF824534D84A
:1043C00029F001035344834294BF002001204FEAA7
:1043D000480808F0020809F0010948EA0908B8F19C
:1043E000010F3AD031D3B8F1020F1AD1236823F06C
:1043F000004ABBF1000F66D130B1009A002A6CD0A0
:10440000BAF1000F00F09080002B00DA04340AF1BA
:10441000010304EB8304BCE7304605A900F048FB28
:1044200078B1092009B0BDE8F08F0020CFE7D4F8BB
:1044300004800834BAE7032312020592ADF81C3059
:104440009BE7082009B0BDE8F08FBBF1000F02D058
:10445000002840F0B48004349BE7BBF1000F18D172
:10446000A8B1D4E90023991C4FEAD272D9D005F142
:1044700058010133049100F0B580201DFFF7E4FDE1
:1044800004AB01462846AFF30080002867D108340A
:104490007FE70D213046D5F82080FFF7EBFE804501
:1044A000F5D1AB6A9C42F2D12046FFF7FFFC0F2109
:1044B00002463046FFF700FF30462A460021FFF74C
:1044C000FBFE0720AEE70D213046D5F82080FFF730
:1044D000D1FE804532D0236896E7BAF1000F23D091
:1044E00005F1580304F10408CDF808B0DDF8009098
:1044F000A34603971C4602E05745B94640D04046C4
:104500000494FFF7A1FD04AB014600222846AFF357
:10451000008009F1010708F104080028ECD0D1451A
:104520005C46DDE902B7D6D130460D21FFF7A2FE89
:10453000049B2862C5E90934062073E7AB6A9C42F4
:10454000C9D104224FF00008A318C5E90AA8C5E99B
:104550000C23236843454DDB0123019357E7804635
:104560000D213046FFF786FEB8F1020F28623ED1DA
:104570002B46049A43F82C2F6B62AC62062051E75D
:104580005C46D1E705A9304600F092FA00287FF496
:1045900048AF019B002B3FF454AF0F213046FFF78B
:1045A00069FE0E2102463046FFF786FE30461A4A63
:1045B0000F21FFF781FE072009B0BDE8F08F2046EC
:1045C000FFF774FC04340746AC632846AFF3008061
:1045D00000283FF426AF30463A460F21FFF76CFE25
:1045E00007201FE730460D21FFF744FE2862049B99
:1045F0006B62C2E70AF1010004EB8000FFF756FC92
:104600000F2102463046FFF757FE30462A46414604
:10461000FFF752FE072005E700000000002393E6A5
:10462000012391E602238FE62DE9F0410546C4B04F
:10463000042906D8DFE801F04D2B05030900032B00
:104640005FD0022044B0BDE8F081002BF9D1102AE0
:10465000F7D82B68DC0600F1F68022AC20460192E8
:10466000012600F095F90023A86B019A06FA03F1E0
:10467000114203D00168043044F823100133042BA5
:10468000F4D1A863204600F079F90020DAE7012B85
:104690004FEA124697B254D0052BD2D106EB070849
:1046A000B8F1200FCDD80F2E40F29B80B846002FD6
:1046B00040F0DD80AA6B0F2EAA6340F2C080B8F1F3
:1046C000000F02D002A800F00DF9002044B0BDE8B0
:1046D000F081002BB5D10127AC6B96B2281D07FAEB
:1046E00003F1314203F1010302D021680434016077
:1046F000102B00F10400F2D112F40050E5D1AC63AC
:10470000A0E7160C97B2F319102B9AD82B681A074A
:104710005FD422AC204600F00FF904EBC601A86B71
:104720004FB1034600EBC7001A680433834241F8D7
:10473000042BF9D11846A863204600F0DBF80020CE
:1047400080E7F219102A3FF67CAF0F2E3FF679AFC3
:104750002A68D10708D5284622F0030240F8482BE2
:10476000019300F0B3F8019B22AC2046019300F0C6
:10477000ADF8A96B019B002F00F095804FF0000869
:104780007A0004EBC604043C01EB820251F8040BEE
:10479000914244F8040FF9D1B8F1000F0FD002ACE8
:1047A000102E314638BF102104EBC101843902EBD1
:1047B000C80452F8040B944241F8040FF9D1012BBC
:1047C0007FF479AF22AC0432AA63204600F07AF875
:1047D0007BE723F008032B6005F5A87000F0ACF828
:1047E00097E7B8F1100F2A6843D9D007A8F110084D
:1047F0000BD5284622F0010242F0020240F8482B75
:10480000019300F06BF82A68019B510725D40F2E05
:1048100004D822A8019300F061F8019B02AC204665
:10482000019300F063F8C6F110000028AA6B019B09
:10483000B6DD22AC114604EBC6044200A3E722A871
:1048400000F048F83BE723F010032B6005F5E87013
:10485000019200F09DF8019AFFE6284622F004023A
:1048600040F8D02B019300F041F8019BCFE72A6874
:10487000CBE7D0070AD5284622F0010242F0020217
:1048800040F8482B019300F029F8019B22AC204608
:104890000193B84600F022F8A96B019B002F7FF42A
:1048A0006DAF0A4607E70A468DE700BF00F1340105
:1048B00091E838009C46A6464CF8045D90E8FF0F4E
:1048C000E54600BD90EC210B704700BF80EC210B4A
:1048D000704700BF90EC200B704700BF80EC200BAE
:1048E000704700BFD0EC200B704700BFC0EC200B1E
:1048F000704700BFF0EC0201F0EC0211F0EC022175
:10490000F0EC0231F0EC0241F0EC0251F0EC02610B
:10491000F0EC0271F0EC0281F0EC0291F0EC02A1FB
:10492000F0EC02B1F0EC02C1F0EC02D1F0EC02E1EB
:10493000F0EC02F1704700BFE0EC0201E0EC021184
:10494000E0EC0221E0EC0231E0EC0241E0EC02514B
:10495000E0EC0261E0EC0271E0EC0281E0EC02913B
:10496000E0EC02A1E0EC02B1E0EC02C1E0EC02D12B
:10497000E0EC02E1E0EC02F1704700BFB0FC018125
:10498000B0FC0191B0FC01A1B0FC01B1704700BFC7
:10499000A0FC0181A0FC0191A0FC01A1A0FC01B13F
:1049A000704700BFEC4600B52DE900502DE9FF1F10
:1049B0004FF000032DE90C0001A9FFF7D7FBDDF84C
:1049C00040E012B0704700BFEC4600B52DE9005042
:1049D0002DE9FF1F4FF000032DE90C0001A9FFF79F
:1049E000FFFBDDF840E012B0704700BFEC4600B5B9
:1049F0002DE900502DE9FF1F4FF000032DE90C00B9
:104A000001A9FFF70FFCDDF840E012B0704700BFCE
:104A1000EC4600B52DE900502DE9FF1F4FF00003D3
:104A20002DE90C0001ABFFF7D1FBDDF840E012B03F
:104A3000704700BFEC4600B52DE900502DE9FF1F7F
:104A40004FF000032DE90C0001AAFFF743FCDDF84D
:104A500040E012B0704700BF027A7AB9437AA3B13E
:104A600003214268013B10B443721368141D0172A4
:104A70001A024460026010BC180E70470368013AC5
:104A800002721A020260180E7047B020704700BF11
:104A9000002300B585B003AA009219460C22FFF747
:104AA000D3FB039805B05DF804FB00BFF0E700BF3F
:104AB0002DE9F04305460E464FF0000885B030461C
:104AC000FFF7CAFFB028044600F0B080070620D5E3
:104AD00000F0F003802B65D0902B36D0A02B78D03F
:104AE000B02B47D0C02B00F0898000F0F803D02B0A
:104AF0000BD100F00702013242F40022052301210C
:104B00002846FFF791FD0028D9D0092005B0BDE85F
:104B1000F08300230DF10C0919468700CDF80090B1
:104B20000D222846FFF790FBFFB2039B0437600677
:104B30004CBFDF1BFF180023CDF8009019460D2253
:104B400028460397FFF7A2FBB9E700F00D030D2BF2
:104B5000DBD0002303AF00F00F0219460097284670
:104B6000FFF772FB0023009719460D222846FFF736
:104B70008DFBA4E7B1285ED0B22800F0CB80B3282B
:104B80007DD000F0FC03B42BBFD0012300F007025E
:104B90001A4442F4002219462846FFF745FD002832
:104BA0008DD0B2E73046FFF757FF24020443B4F537
:104BB000004FAAD000232401A2B219462846FFF7CD
:104BC00033FD0028A1D114F4004F18BF4FF00108A5
:104BD00075E7C3434FF47F6203F007031A410023D4
:104BE000010702F47F6248BF42F48042194628461A
:104BF000FFF71AFD00283FF462AF86E7C62851D0C0
:104C0000C7285AD000F0F803C02B69D0C82875D047
:104C1000C9287FF47AAF3046FFF71EFF020300F089
:104C20000F0002F470220130024367E7B8F1000F71
:104C300014D000206AE73046FFF70EFF00283FF44B
:104C400064AF10F0F0037FF460AF024619462846C7
:104C5000FFF7EAFC00283FF432AF56E703AC4346C7
:104C60000E22414600942846FFF7EEFA00942846AB
:104C700043460F224146FFF709FB404646E73046D0
:104C8000FFF7EAFE0123010300F00F0001F4702199
:104C9000C2180A4328461946FFF7C6FC00283FF40D
:104CA0000EAF32E73046FFF7D7FE010300F00F00EA
:104CB000032301F47021421CEBE73046FFF7CCFEE2
:104CC000024600283FF421AF10F0F0037FF41DAF3F
:104CD00004212846FFF7A8FC00283FF4F0AE14E7B3
:104CE000032300F00F02013242F420221946284625
:104CF000FFF79AFC00283FF4E2AE06E73046FFF7E4
:104D0000ABFE00F0F00200F00F031032013343EA73
:104D10000232F3E600230DF10C090D221946CDF8FD
:104D200000902846FFF790FA3046FFF795FE0206FE
:104D30004FF002070CD5039B00F07F00B8400344FE
:104D400030460393FFF788FE030607F10707F2D406
:104D50000023039A00F07F04BC4002F50172144462
:104D6000CDF8009019460D2228460394FFF78EFADD
:104D7000A5E600BF30B503240D46C36C85B05A6864
:104D80008DF80C40DC791202083301A92846019203
:104D90008DF80D400293FFF78BFE05B030BD00BFCC
:104DA00008B5FFF783FE806C08BD00BF08B5FFF7AC
:104DB0007DFEC06CC37900EB8300083008BD00BFE6
:104DC00008B5FDF709FA00BF08B5FFF7F9FF00BF06
:104DD00010B5431E0A44914200D110BD11F8014B99
:104DE00003F8014FF7E703460244934200D17047AE
:104DF00003F8011BF9E700000EB46FF0004100B5A5
:104E00009CB01DAB02900690079104910848094997
:104E100053F8042B0591006802A9019300F08CF867
:104E20000022029B1A701CB05DF804EB03B07047BF
:104E3000780000200802FFFF034611F8012B03F859
:104E4000012B002AF9D17047034613F8012B002AE1
:104E5000FBD1181A0138704770B50446013902B900
:104E600070BD234611F8015F561E03F8015B2DB992
:104E70001444A342F4D003F8015BFAE71C4632461F
:104E8000EDE72DE9F0478E6882469E420C4690463B
:104E9000994637D88A8912F4906F31D00223256859
:104EA00009696F1A656905EB450595FBF3F509F18D
:104EB00001033B449D4238BF1D46530530D529466A
:104EC00000F02EFB064650B90C234FF0FF30CAF815
:104ED0000030A38943F04003A381BDE8F0873A4640
:104EE0002169FFF775FFA38923F4906343F08003E2
:104EF000A38126613E4426604E466561ED1BA56098
:104F00004E4500D94E4632464146206800F0A2FA8E
:104F1000A36800209B1BA36023681E442660DCE777
:104F20002A4600F057FB06460028E2D12169504688
:104F300000F0AAFAC8E700002DE9F04F1D468B8962
:104F40009DB01F0680460C4616460FD50B696BB9FF
:104F5000402100F0E5FA2060206128B90C23C8F850
:104F600000304FF0FF30C8E0402363610023099315
:104F700020238DF8293030234FF0010B8DF82A3093
:104F8000039537463D4615F8013B0BB1252B3ED125
:104F9000B7EB060A0BD05346324621464046FFF790
:104FA00070FF013000F0A480099B534409933B78C3
:104FB000002B00F09D8000234FF0FF32CDE9052348
:104FC000049307938DF853301A932F46052217F850
:104FD000011B504800F030FA049BD0B9D90644BFF9
:104FE00020228DF853201A0744BF2B228DF853201E
:104FF0002A782A2A15D02F4600200A25079A3946F2
:1050000011F8013B303B092B4DD9B8B10FE02F46C9
:10501000B8E7404A3D46801A0BFA00F01843049066
:10502000D3E7039A111D12680391002A01DB07924E
:1050300004E0524243F00203079204933B782E2B84
:105040000CD17B782A2B33D1039B02371A1D1B68A6
:105050000392002BB8BF4FF0FF3305932E4D032270
:105060003978284600F0E8F938B14023401B03FAAC
:1050700000F0049B01370343049339780622274844
:105080007E1C8DF8281000F0D7F9002838D0244B6A
:1050900013BB039B073323F0070308330393099BD8
:1050A0004B4409936DE705FB023201200F46A6E74A
:1050B00000230A25194601370593384610F8012BBD
:1050C000303A092A03D9002BC8D00591C6E705FB61
:1050D000012101230746F0E703AB00932246114B61
:1050E00004A94046AFF30080B0F1FF3F8146D6D11E
:1050F000A3895B063FF535AF09981DB0BDE8F08F79
:1051000003AB00932246074B04A9404600F082F807
:10511000EAE700BFAC580008B2580008B6580008CB
:1051200000000000834E00082DE9F04791461F461D
:105130008A680B6906469342B8BF1346C9F8003027
:1051400091F843200C46DDF8208012B10133C9F8F4
:1051500000302368990642BFD9F800300233C9F8FD
:105160000030256815F0060507D104F1190AE36837
:10517000D9F800209B1AAB4229DC94F8433022680E
:10518000003318BF012392062ED404F1430239469E
:105190003046C047013021D02368E56803F006039C
:1051A000042B18BF0025D9F800204FF0000908BFD4
:1051B000AD1AA368226908BF25EAE5759342C4BF0A
:1051C0009B1AED181A344D451AD1002008E001232E
:1051D000524639463046C047013003D14FF0FF30C8
:1051E000BDE8F0870135C2E73020E11881F84300BF
:1051F0005A1C94F845102244023382F84310C4E745
:105200000123224639463046C0470130E6D009F135
:105210000109D8E72DE9F04301F1430C0C46097E62
:1052200085B06E291746064698460C9A00F0B38062
:1052300022D8632936D00AD8002900F0B98058292D
:1052400000F0838004F1420584F8421032E06429C2
:1052500001D06929F6D120681368050603F104011D
:105260002AD51B681160002B03DA2D225B4284F8DB
:1052700043206F480A2239E0732900F09D8008D846
:105280006F2920D07029DDD1236843F020032360EB
:1052900003E0752917D07829D4D17823654884F89C
:1052A000453055E0136804F14205191D1B68116073
:1052B00084F8423001238CE01B6810F0400F11602D
:1052C00018BF1BB2CFE713682568181D10602806A9
:1052D00001D51B6802E06806FBD51B886F2914BF47
:1052E0000A2208225248002184F843106568002DE4
:1052F000A560C0F29580216821F004012160002B97
:105300003DD1002D40F08E806546082A0BD12368E0
:10531000DB0708D5236962689A42DEBF302305F8AF
:10532000013C05F1FF35ACEB05032361CDF80080AE
:105330003B4603AA21463046FFF7F6FE01304DD129
:105340004FF0FF3005B0BDE8F083394884F84510D0
:10535000136821681D1D1B6815600A060BD5CA0756
:1053600044BF41F0200121601BB9226822F02002D5
:1053700022601022B7E74D0648BF9BB2EFE76546B3
:10538000B3FBF2F102FB1133C35C05F8013D0B46A0
:105390000029F5D1B9E713682568181D6169106007
:1053A00028061B6801D5196002E06A06FBD5198042
:1053B000002365462361B9E71368191D11601D6854
:1053C00062680021284600F037F808B1401B606091
:1053D00063682361002384F84330A7E723692A46E2
:1053E00039463046C0470130AAD023689B0713D402
:1053F000E068039B9842B8BF1846A3E701234A46DA
:1054000039463046C04701309AD00135E368039AE7
:105410009B1AAB42F2DCEBE7002504F11909F5E732
:10542000002BACD1037804F1420584F842306CE7DC
:10543000BD580008CE58000810B5C9B202449042C9
:10544000034601D1002303E01C7801308C42F6D1E1
:10545000184610BD884210B501EB020307D8421E62
:1054600099420AD011F8014B02F8014FF8E7834244
:10547000F5D98118D21AD34200D110BD13F8014DCD
:1054800001F8014DF7E7000038B50546002943D083
:1054900051F8043C0C1F002BB8BFE41800F0D0F802
:1054A0001E4A1368104633B9636014602846BDE88D
:1054B000384000F0C6B8A3420BD921686218934265
:1054C00001BF1A685B685218226063600460EDE7F0
:1054D00013465A680AB1A242FAD919685818A0426C
:1054E0000BD120680144581882421960DED110683F
:1054F0005268014419605A60D8E702D90C232B6026
:10550000D4E7206821188A4201BF1168526809183F
:10551000216062605C60C9E738BD00BFE402002022
:1055200070B5CD1C25F0030508350C2D38BF0C25B2
:10553000002D064601DBA94203D90C23336000206D
:1055400070BD00F07DF8214A1468214691B9204CC5
:1055500023681BB9304600F063F8206029463046C6
:1055600000F05EF8431C24D10C233046336000F079
:1055700068F8E4E70B685B1B18D40B2B0FD90B60A2
:10558000CC18CD50304600F05CF804F10B00231D20
:1055900020F00700C31AD3D05A42E250D0E74B683C
:1055A0008C4216BF636013600C46EBE70C464968FB
:1055B000CCE7C41C24F00304A04205D0211A3046D5
:1055C00000F02EF80130CFD02560DBE7E4020020A8
:1055D000E8020020F8B5074614460E4621B9BDE89A
:1055E000F8401146FFF79CBF22B9FFF74DFF254653
:1055F0002846F8BD00F026F8A0420FD221463846D2
:10560000FFF78EFF05460028F2D031462246FFF70D
:10561000DFFB31463846FFF737FFE9E73546E7E776
:1056200038B50023054C054608462360FCF7C6FD47
:10563000431C02D1236803B12B6038BD98040020BD
:105640007047704751F8043C181F002BBCBF0B5823
:10565000C01870474445204E4F43414C4C00000059
:1056600020494E2025730000202B000024242424F0
:10567000257300002A253034580A00009857000886
:105680009C570008A4570008AC570008945700081E
:10569000B0570008B8570008BC570008C4570008A6
:1056A000C8570008D0570008D4570008DC57000836
:1056B000E0570008E4570008E8570008F0570008D2
:1056C000F8570008FC5700084C570008005800081D
:1056D000045800080C580008105800081858000812
:1056E000205800084857000850570008585700082D
:1056F000605700086857000870570008785700087E
:105700008057000888570008905700082D2E2E2D2E
:105710002E0000002D2E2E2E2D0000002E2D2E2DC1
:105720002E2D00002D2D2E2E2D2D00002E2E2D2D58
:105730002E2E00002E2D2E2D2E0000002E2D2D2E73
:105740002D2E002D2E0000002D2D2D2D2D000000C2
:105750002E2D2D2D2D0000002E2E2D2D2D00000084
:105760002E2E2E2D2D0000002E2E2E2E2D00000070
:105770002E2E2E2E2E0000002D2E2E2E2E0000005E
:105780002D2D2E2E2E0000002D2D2D2E2E00000052
:105790002D2D2D2D2E0000002E2D00002D2E2E2E15
:1057A000000000002D2E2D2E000000002D2E2E00BA
:1057B0002E2E2D2E000000002D2D2E002E2E2E2EF2
:1057C000000000002E2E00002E2D2D2D00000000C8
:1057D0002D2E2D002E2D2E2E000000002D2D000030
:1057E0002D2E00002D2D2D002E2D2D2E0000000021
:1057F0002D2D2E2D000000002E2D2E002E2E2E00E1
:105800002E2E2D002E2E2E2D000000002E2D2D00D0
:105810002D2E2E2D000000002D2E2D2D000000001D
:105820002D2D2E2E000000004E4F43414C4C000009
:1058300057494445312D312C57494445322D3100CB
:1058400041505A51415000003A544553543132337B
:10585000343536373839300021253032642530323E
:10586000642E2530327525632F2530336425303280
:10587000752E2530327525634F2F413D2530366C0E
:10588000642F50256453256454256456256425737C
:10589000000000002048656C6C6F2066726F6D2000
:1058A00074686520736B792100000000232D302B74
:1058B0002000686C4C006566674546470030313211
:1058C0003334353637383941424344454600303168
:0F58D000323334353637383961626364656600C8
:1058E00008B10181B0B000840000000008B101815E
:0858F000B0B0008400000000CC
:1058F80044D0FF7FAD08B18000D1FF7FB0AF0280F8
:10590800DCD2FF7F0100000074D4FF7FB0AF0280BB
:105918001CD5FF7FB0B0A88068D5FF7FB0A80380F2
:1059280094D5FF7F01000000A4D5FF7F03AF2C8032
:10593800A0D7FF7F0100000008E6FF7FB0A9028022
:10594800A8E6FF7FB0B0A880F8E6FF7F010000005E
:1059580004E7FF7FB0B0AA803CE7FF7FAE71B2805A
:1059680000E8FF7F01000000FCE7FF7FAB3F3880C5
:1059780054E8FF7F0100000060E8FF7FB0B0AA8014
:105988009CE8FF7F0100000044E9FF7FAB0EB28076
:10599800B0E9FF7FB0AF08807CECFF7F010000001A
:1059A80080ECFF7FAC3F0380FCEEFF7F010000002E
:1059B800D8F0FF7F00840480ECF0FF7F0100000036
:1059C800E8F0FF7FB0AD0480A4F3FF7FB0A90480A6
:1059D800C8F3FF7F04FFFF7FCCF3FF7F08FFFF7F43
:0859E800D8F3FF7F010000006D
:1059F0002D2D2D2D000000000000000000000000F3
:105A00000000000000000000000000000000000096
:105A1000D0070000010000000A000000AB120000E7
:105A2000C8AF00004E0000002048656C6C6F206617
:105A3000726F6D2074686520736B7921000000001F
:105A4000000000004E4F43414C4C0000000000009D
:105A50000000000000000000010203040102030432
:105A600006070809020406087C0000200000000068
:105A70000000000000000000000000000000000026
:105A80000000000000000000000000000000000016
:105A90000000000000000000000000000000000006
:105AA00000000000000000000000000000000000F6
:105AB00000000000000000000000000000000000E6
:0C5AC000000000000000000000000000DA
:0400000508000000EF
:00000001FF
